:1001A7000A08C0F9A4B0999282F880900212000060
:08018D00F8E6F5807F327E00E8
:10019500E4FDFCD3ED9FEC9E50070DBD00010C80E6
:0101A500F267
:0101A6002236
:1001560075A881D288D2A0AE12AF137C007D0A1298
:10016600009274082F12018DC2A07580FFD2A1AE35
:1001760012AF137C007D0A12009274082D12018DB5
:07018600C2A17580FF80CECD
:0300030002011DDA
:10011D00C0E0C0D075D000C004C005C006C007C285
:10012D00AF0513E51370020512646445127004F5F2
:10013D0012F5137FE87E03120195D2AFD007D006DA
:09014D00D005D004D0D0D0E0327E
:03000000020006F5
:0C000600787FE4F6D8FD75811302004DF0
:10009200C2D5EC30E709B2D5E4C39DFDE49CFCEE89
:1000A20030E715B2D5E4C39FFFE49EFE1200C8C339
:1000B200E49DFDE49CFC80031200C830D507C3E434
:0600C2009FFFE49EFE22F8
:10001200020156E493A3F8E493A34003F68001F2AD
:1000220008DFF48029E493A3F85407240CC8C333EF
:10003200C4540F4420C8834004F456800146F6DFBE
:10004200E4800B01020408102040809001A7E47EA6
:10005200019360BCA3FF543F30E509541FFEE493B3
:10006200A360010ECF54C025E060A840B8E493A37A
:10007200FAE493A3F8E493A3C8C582C8CAC583CAA5
:10008200F0A3C8C582C8CAC583CADFE9DEE780BE5D
:0101B7000047
:1000C800BC000BBE0029EF8DF084FFADF022E4CC1C
:1000D800F875F008EF2FFFEE33FEEC33FCEE9DECE5
:1000E800984005FCEE9DFE0FD5F0E9E4CEFD22ED2B
:1000F800F8F5F0EE8420D21CFEADF075F008EF2F75
:10010800FFED33FD4007985006D5F0F222C398FD65
:050118000FD5F0EA2202
:00000001FF
